{
  "contractName": "HelloWord",
  "abi": [
    {
      "constant": true,
      "inputs": [],
      "name": "owner",
      "outputs": [
        {
          "name": "",
          "type": "address"
        }
      ],
      "payable": false,
      "type": "function",
      "stateMutability": "view"
    },
    {
      "constant": false,
      "inputs": [
        {
          "name": "_test",
          "type": "uint256"
        },
        {
          "name": "_value",
          "type": "uint256"
        }
      ],
      "name": "teste",
      "outputs": [
        {
          "name": "_value",
          "type": "uint256"
        }
      ],
      "payable": false,
      "type": "function",
      "stateMutability": "nonpayable"
    },
    {
      "constant": false,
      "inputs": [
        {
          "name": "_to",
          "type": "address"
        },
        {
          "name": "_value",
          "type": "uint256"
        }
      ],
      "name": "transfer",
      "outputs": [
        {
          "name": "success",
          "type": "bool"
        }
      ],
      "payable": false,
      "type": "function",
      "stateMutability": "nonpayable"
    },
    {
      "inputs": [
        {
          "name": "_user",
          "type": "address"
        }
      ],
      "payable": false,
      "type": "function",
      "stateMutability": "view",
      "constant": true,
      "name": "getBalance",
      "outputs": [
        {
          "name": "_balance",
          "type": "uint256"
        }
      ]
    },
    {
      "inputs": [],
      "payable": false,
      "stateMutability": "nonpayable",
      "type": "constructor"
    }
  ],
  "bytecode": "0x6060604052341561000f57600080fd5b60008054600160a060020a03338116600160a060020a0319909216919091178083551681526001602052604090206103e890556101c4806100516000396000f300606060405263ffffffff7c01000000000000000000000000000000000000000000000000000000006000350416638da5cb5b811461005d578063a87d7dd41461008c578063a9059cbb146100b4578063f8b2cb4f146100ea57600080fd5b341561006857600080fd5b610070610109565b604051600160a060020a03909116815260200160405180910390f35b341561009757600080fd5b6100a2600435610118565b60405190815260200160405180910390f35b34156100bf57600080fd5b6100d6600160a060020a036004351660243561011b565b604051901515815260200160405180910390f35b34156100f557600080fd5b6100a2600160a060020a036004351661017d565b600054600160a060020a031681565b90565b600160a060020a0333166000908152600160205260408120548290101561014457506000610177565b50600160a060020a0333811660009081526001602081905260408083208054869003905592851682529190208054830190555b92915050565b600160a060020a0316600090815260016020526040902054905600a165627a7a723058205223a523a9988a80e41a07b8ec1da0e94f9ccdc759ed26b654353d7a015a30b00029",
  "source": "\r\npragma solidity ^0.4.15;\r\n\r\ncontract HelloWord {\r\n    address public owner;\r\n   mapping(address => uint) balances;\r\n    //contructor\r\n    // runs onde upon contract creation\r\n     function  HelloWord() {\r\n      owner = msg.sender;\r\n      balances[owner] = 1000;\r\n        \r\n    }\r\n\r\n    function transfer(address _to, uint _value) public returns (bool success) {\r\n        if (balances[msg.sender] < _value) {            return false;\r\n        }\r\n\r\n        balances[msg.sender] -= _value;\r\n        balances[_to] += _value;\r\n        return true;\r\n    }\r\n\r\n     function getBalance(address _user) public constant returns (uint _balance) {\r\n        return balances[_user];\r\n    }\r\n    function teste(uint _test)  public returns(uint _value) {\r\n        return _test;\r\n    }\r\n\r\n}",
  "sourcePath": "E:\\blockchain\\testeSolidity\\contracts\\HelloWord.sol",
  "schemaVersion": "1.0.0",
  "updatedAt": "2017-10-13T16:02:18.435Z"
}